:020000040800F2
:100000000000012061930008B1930008B19300083B
:10001000B1930008B1930008B193000800000000FC
:10002000000000000000000000000000B193000884
:10003000B193000800000000B1930008218A000875
:10004000B1930008B1930008B1930008B193000880
:10005000B1930008B1930008B1930008B193000870
:10006000B1930008B1930008B1930008B193000860
:10007000B1930008B1930008B1930008B193000850
:10008000B19300086D840008B1930008B193000893
:10009000B1930008B1930008B1930008B193000830
:1000A000B1930008B1930008B1930008B193000820
:1000B000B19300087D910008B1930008B193000846
:1000C000B1930008B1930008B1930008B193000800
:1000D000B1930008B1930008A184000821840008AE
:1000E000B1930008B1930008B1930008000000002C
:1000F0000000000000000000000000000000000000
:100100000000000000000000B1930008B193000857
:10011000B1930008B1930008B1930008B1930008AF
:10012000B1930008B1930008B1930008B19300089F
:10013000B1930008B1930008B1930008B19300088F
:10014000B1930008B1930008B1930008B19300087F
:10015000000000000000000000000000000000009F
:10016000000000000000000000000000000000008F
:10017000000000000000000000000000000000007F
:10018000000000000000000000000000000000006F
:10019000000000000000000000000000000000005F
:1001A000000000000000000000000000000000004F
:1001B000000000000000000000000000000000003F
:1001C000000000000000000000000000000000002F
:1001D000000000000000000000000000000000001F
:0401E0005FF8E0F1F3
:1001E80010B5054C237833B9044B13B10448AFF369
:1001F80000800123237010BDAC0100200000000026
:1002080000AF000808B5034B1BB103490348AFF31F
:10021800008008BD00000000B001002000AF000809
:1002280081F0004102E000BF83F0004330B54FEA9F
:1002380041044FEA430594EA050F08BF90EA020F0C
:100248001FBF54EA000C55EA020C7FEA645C7FEA9F
:10025800655C00F0E2804FEA5454D4EB5555B8BFC2
:100268006D420CDD2C4480EA020281EA030382EA33
:10027800000083EA010180EA020281EA0303362DC5
:1002880088BF30BD11F0004F4FEA01314FF4801C98
:100298004CEA113102D0404261EB410113F0004FAA
:1002A8004FEA03334CEA133302D0524263EB430361
:1002B80094EA050F00F0A780A4F10104D5F1200EFF
:1002C8000DDB02FA0EFC22FA05F2801841F100015A
:1002D80003FA0EF2801843FA05F359410EE0A5F12E
:1002E80020050EF1200E012A03FA0EFC28BF4CF05F
:1002F800020C43FA05F3C01851EBE37101F0004515
:1003080007D54FF0000EDCF1000C7EEB00006EEB21
:100318000101B1F5801F1BD3B1F5001F0CD34908AB
:100328005FEA30004FEA3C0C04F101044FEA445202
:1003380012F5800F80F09A80BCF1004F08BF5FEA89
:10034800500C50F1000041EB045141EA050130BD69
:100358005FEA4C0C404141EB010111F4801FA4F10C
:100368000104E9D191F0000F04BF01460020B1FA61
:1003780081F308BF2033A3F10B03B3F120020CDA99
:100388000C3208DD02F1140CC2F10C0201FA0CF077
:1003980021FA02F10CE002F11402D8BFC2F1200CDC
:1003A80001FA02F120FA0CFCDCBF41EA0C01904092
:1003B800E41AA2BF01EB0451294330BD6FEA0404DB
:1003C8001F3C1CDA0C340EDC04F11404C4F12002C6
:1003D80020FA04F001FA02F340EA030021FA04F3D8
:1003E80045EA030130BDC4F10C04C4F1200220FA2F
:1003F80002F001FA04F340EA0300294630BD21FA6D
:1004080004F0294630BD94F0000F83F4801306BF32
:1004180081F480110134013D4EE77FEA645C18BF26
:100428007FEA655C29D094EA050F08BF90EA020FBD
:1004380005D054EA000C04BF1946104630BD91EAB5
:10044800030F1EBF0021002030BD5FEA545C05D1B8
:100458004000494128BF41F0004130BD14F58004F7
:100468003CBF01F5801130BD01F0004545F0FE416B
:1004780041F470014FF0000030BD7FEA645C1ABFA0
:10048800194610467FEA655C1CBF0B46024650EAD7
:10049800013406BF52EA033591EA030F41F4002103
:1004A80030BD00BF90F0000F04BF0021704730B589
:1004B8004FF4806404F132044FF000054FF000015E
:1004C80050E700BF90F0000F04BF0021704730B51F
:1004D8004FF4806404F1320410F0004548BF4042F4
:1004E8004FF000013EE700BF42004FEAE2014FEA49
:1004F80031014FEA02701FBF12F07F4393F07F4F24
:1005080081F06051704792F0000F14BF93F07F4F55
:10051800704730B54FF4607401F0004521F0004198
:1005280020E700BF50EA010208BF704730B54FF01E
:1005380000050AE050EA010208BF704730B511F023
:10054800004502D5404261EB41014FF4806404F15B
:1005580032045FEA915C3FF4DCAE4FF003025FEADD
:10056800DC0C18BF03325FEADC0C18BF033202EB65
:10057800DC02C2F1200300FA03FC20FA02F001FABF
:1005880003FE40EA0E0021FA02F11444C1E600BF5E
:1005980070B54FF0FF0C4CF4E06C1CEA11541DBF11
:1005A8001CEA135594EA0C0F95EA0C0F00F0DEF8DC
:1005B8002C4481EA030621EA4C5123EA4C5350EAC1
:1005C800013518BF52EA033541F4801143F4801312
:1005D80038D0A0FB02CE4FF00005E1FB02E506F0A3
:1005E8000042E0FB03E54FF00006E1FB03569CF0F8
:1005F800000F18BF4EF0010EA4F1FF04B6F5007FFE
:1006080064F5407404D25FEA4E0E6D4146EB06066F
:1006180042EAC62141EA55514FEAC52040EA5E50F8
:100628004FEACE2EB4F1FD0C88BFBCF5E06F1ED8A2
:10063800BEF1004F08BF5FEA500E50F1000041EBD9
:10064800045170BD06F0004646EA010140EA020086
:1006580081EA0301B4EB5C04C2BFD4EB0C0541EAA8
:10066800045170BD41F480114FF0000E013C00F3BD
:10067800AB8014F1360FDEBF002001F0004170BDE1
:10068800C4F10004203C35DA0C341BDC04F11404FA
:10069800C4F1200500FA05F320FA04F001FA05F286
:1006A80040EA020001F0004221F0004110EBD37053
:1006B80021FA04F642EB06015EEA430E08BF20EA7F
:1006C800D37070BDC4F10C04C4F1200500FA04F322
:1006D80020FA05F001FA04F240EA020001F00041B4
:1006E80010EBD37041F100015EEA430E08BF20EA27
:1006F800D37070BDC4F1200500FA05F24EEA020E6F
:1007080020FA04F301FA05F243EA020321FA04F09D
:1007180001F0004121FA04F220EA020000EBD37054
:100728005EEA430E08BF20EAD37070BD94F0000F54
:100738000FD101F00046400041EB010111F4801F88
:1007480008BF013CF7D041EA060195F0000F18BF39
:10075800704703F00046520043EB030313F4801F75
:1007680008BF013DF7D043EA0603704794EA0C0F2F
:100778000CEA135518BF95EA0C0F0CD050EA410645
:1007880018BF52EA4306D1D181EA030101F00041C2
:100798004FF0000070BD50EA410606BF10461946EA
:1007A80052EA430619D094EA0C0F02D150EA0136F6
:1007B80013D195EA0C0F05D152EA03361CBF104637
:1007C80019460AD181EA030101F0004141F0FE41D6
:1007D80041F470014FF0000070BD41F0FE4141F45A
:1007E800780170BD70B54FF0FF0C4CF4E06C1CEA5A
:1007F80011541DBF1CEA135594EA0C0F95EA0C0F0F
:1008080000F0A7F8A4EB050481EA030E52EA0335C9
:100818004FEA013100F088804FEA03334FF08055EA
:1008280045EA131343EA12634FEA022245EA111517
:1008380045EA10654FEA00260EF000419D4208BFC8
:10084800964244F1FD0404F5407402D25B084FEA75
:100858003202B61A65EB03055B084FEA32024FF421
:1008680080104FF4002CB6EB020E75EB030E22BF7E
:10087800B61A754640EA0C005B084FEA3202B6EB3E
:10088800020E75EB030E22BFB61A754640EA5C00ED
:100898005B084FEA3202B6EB020E75EB030E22BF7D
:1008A800B61A754640EA9C005B084FEA3202B6EB7E
:1008B800020E75EB030E22BFB61A754640EADC003D
:1008C80055EA060E18D04FEA051545EA16754FEA9F
:1008D80006164FEAC30343EA52734FEAC2025FEABD
:1008E8001C1CC0D111F4801F0BD141EA00014FF04C
:1008F80000004FF0004CB6E711F4801F04BF01431D
:100908000020B4F1FD0C88BFBCF5E06F3FF6AFAE38
:10091800B5EB030C04BFB6EB020C5FEA500C50F1C8
:10092800000041EB045170BD0EF0004E4EEA11314B
:1009380014EB5C04C2BFD4EB0C0541EA045170BD52
:1009480041F480114FF0000E013C90E645EA060E96
:100958008DE60CEA135594EA0C0F08BF95EA0C0FC4
:100968003FF43BAF94EA0C0F0AD150EA01347FF40C
:1009780034AF95EA0C0F7FF425AF104619462CE7E3
:1009880095EA0C0F06D152EA03353FF4FDAE104646
:10099800194622E750EA410618BF52EA43067FF497
:1009A800C5AE50EA41047FF40DAF52EA43057FF427
:1009B800EBAE12E74FF0FF3C06E000BF4FF0010C32
:1009C80002E000BF4FF0010C4DF804CD4FEA410C96
:1009D8007FEA6C5C4FEA430C18BF7FEA6C5C1BD063
:1009E80001B050EA410C0CBF52EA430C91EA030FE4
:1009F80002BF90EA020F0020704710F1000F91EA41
:100A0800030F58BF994208BF90422CBFD8176FEA0E
:100A1800E37040F0010070474FEA410C7FEA6C5CDC
:100A280002D150EA013C07D14FEA430C7FEA6C5CE3
:100A3800D6D152EA033CD3D05DF8040B704700BF0F
:100A48008446104662468C461946634600E000BF5D
:100A580001B5FFF7B7FF002848BF10F1000F01BD2F
:100A68004DF808EDFFF7F4FF0CBF012000205DF8FA
:100A780008FB00BF4DF808EDFFF7EAFF34BF01207F
:100A880000205DF808FB00BF4DF808EDFFF7E0FF18
:100A980094BF012000205DF808FB00BF4DF808ED69
:100AA800FFF7CEFF94BF012000205DF808FB00BFD0
:100AB8004DF808EDFFF7C4FF34BF012000205DF8B2
:100AC80008FB00BF4FEA410212F5001215D211D5FA
:100AD8006FF47873B3EB625212D94FEAC12343F033
:100AE800004343EA505311F0004F23FA02F018BFB5
:100AF800404270474FF00000704750EA013005D17E
:100B080011F0004008BF6FF0004070474FF0000040
:100B1800704700BF4A0011D212F5001211D20DD54C
:100B28006FF47873B3EB62520ED44FEAC12343F0EB
:100B3800004343EA505323FA02F070474FF0000095
:100B4800704750EA013002D14FF0FF3070474FF044
:100B5800000070474FEA4102B2F1E04324BFB3F509
:100B6800001CDCF1FE5C0DD901F0004C4FEAC0021C
:100B78004CEA5070B2F1004F40EB830008BF20F000
:100B88000100704711F0804F21D113F13872BCBFBA
:100B980001F00040704741F480114FEA5252C2F10F
:100BA8001802C2F1200C10FA0CF320FA02F018BF58
:100BB80040F001004FEAC1234FEAD32303FA0CFCAB
:100BC80040EA0C0023FA02F34FEA4303CCE77FEA3A
:100BD800625307D150EA01331EBF4FF0FE4040F484
:100BE8004000704701F0004040F0FE4040F4000033
:100BF800704700BF80F0004002E000BF81F0004174
:100C080042001FBF5FEA410392EA030F7FEA226CAA
:100C18007FEA236C6AD04FEA1262D2EB1363C1BF3A
:100C2800D218414048404140B8BF5B42192B88BFA9
:100C3800704710F0004F40F4000020F07F4018BFCC
:100C4800404211F0004F41F4000121F07F4118BFEC
:100C5800494292EA030F3FD0A2F1010241FA03FC94
:100C680010EB0C00C3F1200301FA03F100F000437C
:100C780002D5494260EB4000B0F5000F13D3B0F144
:100C8800807F06D340084FEA310102F10102FE2AB3
:100C980051D2B1F1004F40EBC25008BF20F0010023
:100CA80040EA03007047490040EB000010F4000FD1
:100CB800A2F10102EDD1B0FA80FCACF1080CB2EB64
:100CC8000C0200FA0CF0AABF00EBC25052421843C3
:100CD800BCBFD0401843704792F0000F81F4000168
:100CE80006BF80F400000132013BB5E74FEA41033B
:100CF8007FEA226C18BF7FEA236C21D092EA030FA7
:100D080004D092F0000F08BF0846704790EA010F20
:100D18001CBF0020704712F07F4F04D1400028BF4D
:100D280040F00040704712F100723CBF00F500002F
:100D3800704700F0004343F0FE4040F40000704765
:100D48007FEA226216BF08467FEA23630146420211
:100D580006BF5FEA412390EA010F40F48000704724
:100D68004FF0000304E000BF10F0004348BF4042CA
:100D78005FEA000C08BF704743F0964301464FF006
:100D880000001CE050EA010208BF70474FF0000362
:100D98000AE000BF50EA010208BF704711F00043A3
:100DA80002D5404261EB41015FEA010C02BF844673
:100DB8000146002043F0B64308BFA3F18053A3F5D2
:100DC8000003BCFA8CF2083AA3EBC25310DB01FA19
:100DD80002FC634400FA02FCC2F12002BCF1004F9D
:100DE80020FA02F243EB020008BF20F0010070472E
:100DF80002F1200201FA02FCC2F1200250EA4C0082
:100E080021FA02F243EB020008BF20EADC707047C7
:100E18004FF0FF0C1CEAD0521EBF1CEAD15392EAD5
:100E28000C0F93EA0C0F6FD01A4480EA010C4002B1
:100E380018BF5FEA41211ED04FF0006343EA50100B
:100E480043EA5111A0FB01310CF00040B1F5000F4D
:100E58003EBF490041EAD3715B0040EA010062F1FC
:100E68007F02FD2A1DD8B3F1004F40EBC25008BFE6
:100E780020F00100704790F0000F0CF0004C08BF04
:100E880049024CEA502040EA51207F3AC2BFD2F1D1
:100E9800FF0340EAC250704740F400004FF00003DF
:100EA800013A5DDC12F1190FDCBF00F00040704719
:100EB800C2F10002410021FA02F1C2F1200200FA57
:100EC80002FC5FEA310040F1000053EA4C0308BF1E
:100ED80020EADC70704792F0000F00F0004C02BF6F
:100EE800400010F4000F013AF9D040EA0C0093F0EA
:100EF800000F01F0004C02BF490011F4000F013B44
:100F0800F9D041EA0C018FE70CEAD15392EA0C0FB1
:100F180018BF93EA0C0F0AD030F0004C18BF31F01C
:100F2800004CD8D180EA010000F00040704790F0F2
:100F3800000F17BF90F0004F084691F0000F91F096
:100F4800004F14D092EA0C0F01D142020FD193EA5C
:100F58000C0F03D14B0218BF084608D180EA0100E4
:100F680000F0004040F0FE4040F40000704740F0C0
:100F7800FE4040F4400070474FF0FF0C1CEAD0528E
:100F88001EBF1CEAD15392EA0C0F93EA0C0F69D0EA
:100F9800A2EB030280EA010C49024FEA402037D055
:100FA8004FF0805343EA111143EA10130CF000404C
:100FB8008B4238BF5B0042F17D024FF4000C8B423C
:100FC80024BF5B1A40EA0C00B3EB510F24BFA3EB1C
:100FD800510340EA5C00B3EB910F24BFA3EB9103EC
:100FE80040EA9C00B3EBD10F24BFA3EBD10340EA46
:100FF800DC001B0118BF5FEA1C1CE0D1FD2A3FF68C
:1010080050AF8B4240EBC25008BF20F00100704740
:101018000CF0004C4CEA50207F32C2BFD2F1FF03E3
:1010280040EAC250704740F400004FF00003013A14
:1010380037E792F0000F00F0004C02BF400010F4B8
:10104800000F013AF9D040EA0C0093F0000F01F0CC
:10105800004C02BF490011F4000F013BF9D041EAEE
:101068000C0195E70CEAD15392EA0C0F08D1420221
:101078007FF47DAF93EA0C0F7FF470AF084676E7F4
:1010880093EA0C0F04D14B023FF44CAF08466EE7CD
:1010980030F0004C18BF31F0004CCAD130F000429B
:1010A8007FF45CAF31F000437FF43CAF5FE700BFF3
:1010B8004FF0FF3C06E000BF4FF0010C02E000BF1C
:1010C8004FF0010C4DF804CD4FEA40024FEA4103BE
:1010D8007FEA226C18BF7FEA236C11D001B052EA74
:1010E800530C18BF90EA010F58BFB2EB030088BF3A
:1010F800C81738BF6FEAE17018BF40F001007047A9
:101108007FEA226C02D15FEA402C05D17FEA236C8A
:10111800E4D15FEA412CE1D05DF8040B704700BFD1
:10112800844608466146FFE70FB5FFF7C9FF002868
:1011380048BF10F1000F0FBD4DF808EDFFF7F4FFA1
:101148000CBF012000205DF808FB00BF4DF808ED3A
:10115800FFF7EAFF34BF012000205DF808FB00BF5D
:101168004DF808EDFFF7E0FF94BF012000205DF87F
:1011780008FB00BF4DF808EDFFF7D2FF94BF012030
:1011880000205DF808FB00BF4DF808EDFFF7C8FF29
:1011980034BF012000205DF808FB00BF4FEA400281
:1011A800B2F1FE4F0FD34FF09E03B3EB12620DD98D
:1011B8004FEA002343F0004310F0004F23FA02F0F7
:1011C80018BF404270474FF00000704712F1610F9E
:1011D80001D1420205D110F0004008BF6FF0004075
:1011E80070474FF00000704753B94AB9002908BF4B
:1011F80000281CBF4FF0FF314FF0FF3000F07AB9E4
:10120800ADF1080C6DE904CE00F006F8DDF804E055
:10121800DDE9022304B070472DE9F0478C460E46FD
:101228000446089D002B50D18A4217466CD9B2FA61
:1012380082FEBEF1000F0BD0CEF1200C01FA0EF6A3
:1012480020FA0CFC02FA0EF74CEA060C00FA0EF42F
:101258003A0CBCFBF2F9BBB202FB19CC09FB03FA4E
:101268004FEA144848EA0C46B2450AD9F61909F17A
:10127800FF3180F02581B24540F22281A9F10209AF
:101288003E44A6EB0A06B6FBF2F002FB106600FB32
:1012980003F3A4B244EA0644A34209D9E41900F1CD
:1012A800FF3280F00B81A34240F2088102383C44AF
:1012B8000021E41A40EA0940002D62D0002324FAF4
:1012C8000EF42C606B60BDE8F0878B4207D9002DC7
:1012D80055D0002185E841000846BDE8F087B3FAFB
:1012E80083F1002940F08F80B34202D3824200F29A
:1012F800FC80841A66EB03060120B446002D40D01A
:1013080085E81010BDE8F08712B90127B7FBF2F79E
:10131800B7FA87FEBEF1000F35D10121F61B4FEA5F
:10132800174C1FFA87F8B6FBFCF20CFB126608FB99
:1013380002F0230C43EA0646B04207D9F61902F137
:10134800FF3302D2B04200F2D2801A46361AB6FBF8
:10135800FCF00CFB106608FB00F8A3B243EA064455
:10136800A04507D9E41900F1FF3302D2A04500F2E5
:10137800B9801846A4EB080440EA02409CE72946D5
:101388002846BDE8F08707FA0EF7CEF1200326FAC3
:1013980003F24FEA174CB2FBFCF11FFA87F80CFB7B
:1013A800112206FA0EF620FA03F301FB08F933437B
:1013B8001E0C46EA0246B14500FA0EF409D9F619A0
:1013C80001F1FF3280F08C80B14540F2898002390A
:1013D8003E44A6EB0906B6FBFCF00CFB106200FBD2
:1013E80008F99EB246EA0246B14507D9F61900F156
:1013F800FF3371D2B1456FD902383E44A6EB0906D6
:1014080040EA01418FE7C1F1200722FA07F88B4033
:1014180048EA030326FA07F44FEA134EB4FBFEF931
:101428001FFA83FC0EFB19448E4020FA07F809FBCB
:101438000CFA48EA06084FEA184646EA0444A24568
:1014480002FA01F200FA01F608D9E41809F1FF30AE
:1014580044D2A24542D9A9F102091C44A4EB0A04CA
:10146800B4FBFEF00EFB104400FB0CFC1FFA88F8DE
:1014780048EA0444A44507D9E41800F1FF3E29D2FC
:10148800A44527D902381C4440EA0940A0FB028938
:10149800A4EB0C0CCC45C246CE4615D312D055B1A0
:1014A800B6EB0A036CEB0E0606FA07F7CB401F43B0
:1014B800CE402F606E600021BDE8F0871046F7E649
:1014C8008946DEE64645EAD2B8EB020A69EB030E26
:1014D8000138E4E77046D7E718468FE78146BDE74D
:1014E800114676E702383C4444E7084606E7023AE4
:1014F8003E442BE7704700BF80B400AF3E4A3E4BE6
:101508005B6823F4404353603B4A3B4B5B68536042
:10151800394A394B9B6943F400739361374B002276
:101528001A60364B00225A60344B00229A60334BC3
:101538000022DA60314B00221A61304B00225A61D6
:101548002E4B00229A612D4B0022DA612B4B002290
:101558001A622A4B00225A62284B00229A62274BB1
:101568000022DA62254B00221A63244B00225A63B8
:10157800224B00229A63214B0022DA631F4B002280
:101588001A641E4B00225A641C4B00229A641B4B9F
:101598000022DA64194A194B9B6843F001039360EF
:1015A800164A164B9B6843F00803936000BF134B21
:1015B8009B6803F00803002BF9D1104A0F4B9B6876
:1015C80043F00403936000BF0C4B9B6803F00403D3
:1015D800002BF9D1094A094B9B6843F4F013936037
:1015E800064A064BDB6843F4126343F00403D360F6
:1015F80000BFBD4680BC7047001002400024014077
:1016080080B400AF0F4A0F4B9B6943F4805393613A
:101618000D4B00221A800C4B00229A800A4B0022A4
:101628009A81094B40F23F321A80074A064B1B88C1
:101638009BB243F040039BB2138000BFBD4680BC01
:10164800704700BF001002400030014080B485B0F0
:1016580000AF0346FB710F4BFA7992B29A810E4B99
:10166800FB6000BF0B4B1B899BB203F08003002B70
:1016780005D0FB68013BFB60FB68002BF2D1FB68DF
:10168800002B01D1012300E0002318461437BD4682
:1016980080BC70470030014000E1F50580B584B09A
:1016A80000AF03460A46FB711346BB710023FB7368
:1016B8000023BB73194B10221A61BB79002B02D18E
:1016C800F823FB7301E0FA23FB73FB7B1846FFF753
:1016D800BDFF03461A46BB7B1344BB73FB7923F05B
:1016E8000F03DBB21846FFF7B1FF03461A46BB7B70
:1016F8001344BB73FB791B01DBB21846FFF7A6FF47
:1017080003461A46BB7B1344BB73044B10225A6131
:10171800BB7B18461037BD4680BD00BF000801409E
:1017280080B485B000AF78600023FB607B684FF41D
:10173800FA5202FB03F37B6006E000BFFB6801334B
:10174800FB607B68013B7B607B68002BF5D100BFA9
:101758001437BD4680BC704780B500AFFFF750FF17
:101768003220FFF7DDFF0F4B40F201425A61322071
:10177800FFF7D6FF0B4B01221A610220FFF7D0FFBB
:1017880000213020FFF78AFF00213620FFF786FF6F
:1017980000210120FFF782FF9620FFF7C1FF00BF5D
:1017A80080BD00BF0008014080B483B000AF0023B3
:1017B8007B6007E0084A7B68134400221A707B6844
:1017C80001337B607B68B3F5806FF3DB00BF0C37B8
:1017D800BD4680BC704700BF8412002090B58BB016
:1017E80002AF786039604FF000013868FFF7AEFC4F
:1017F8000346002B01D0214B00E0214BFB614FF049
:1018080000013868FFF7A2FC0346002B03D03B68B1
:1018180083F0004300E03B68BB61B869FFF7BEFC9A
:1018280003467B617869FFF79FFA03461946B86952
:10183800FFF7E4F903463B6112493869FFF7E8FA14
:1018480003461846FEF750FE03460C461846214646
:1018580008F0E4FA03460C4618462146FFF732F929
:101868000346FB60FB6800937B69FA690649786860
:1018780007F0A0FE00BF2437BD4690BD18AF000892
:101888001CAF000800401C4620AF000880B584B09B
:1018980000AF0023FB730023BB600023FB7153E000
:1018A800FB791F2B16D8FB7963F07F03DBB200218D
:1018B8001846FFF7F3FE03461A46FB7B1344FB73F7
:1018C80000218020FFF7EAFE03461A46FB7B1344FB
:1018D800FB7317E0FB7963F07F03DBB2203BDBB2DD
:1018E80000211846FFF7DAFE03461A46FB7B13442D
:1018F800FB7300218820FFF7D1FE03461A46FB7BC5
:101908001344FB730023BB7113E0134ABB681344F1
:101918001B78DBB201211846FFF7C0FE03461A46C2
:10192800FB7B1344FB73BB680133BB60BB7901339A
:10193800BB71BB790F2BE8D9FB7B002B01D00123AE
:1019480006E0FB790133FB71FB793F2BA8D9002313
:1019580018461037BD4680BD8412002090B484B06C
:1019680000AF0446084611461A462346FB71034653
:10197800BB710B467B7113463B710023FB738DE0F3
:101988000023BB7383E03B79032B7DD801A252F877
:1019980023F000BFAD190008E71900082B1A00084A
:1019A8004D1A0008BA79BB7B1B011A447B79DB010D
:1019B8001344B979BA7B120111447A79D2010A44E5
:1019C8003B498A5CD1B2F879BA7B3A4CC0002044D2
:1019D800024412780A43D1B2354AD15454E0BA7954
:1019E800BB7B1B011A447B79DB011344B979BA7BB1
:1019F800120111447A79D2010A442D498A5CD2B283
:101A080051B2F879BA7B2B4CC000204402441278BA
:101A180052B2D24352B20A4052B2D1B2244AD1543D
:101A280032E0BA79BB7B1B011A447B79DB01134492
:101A3800F979BA7B1F48C90001440A4411781C4A45
:101A4800D15421E0BA79BB7B1B011A447B79DB01B5
:101A58001344B979BA7B120111447A79D2010A4444
:101A680013498A5CD2B251B2F879BA7B114CC000E2
:101A780020440244127852B2D24352B20A4352B2BC
:101A8800D1B20B4AD15400BFBB7B0133BB73BB7BC4
:101A9800072B7FF678AFFB7B0133FB73FB7B072BB0
:101AA8007FF66EAF00BF1037BD4690BC704700BFD1
:101AB800841200203CB4000880B584B000AF786080
:101AC800084611461A460346FB700B46BB70134680
:101AD8007B700023FB7348E07B78032B32D801A28C
:101AE80052F823F0FD1A0008111B0008251B0008F6
:101AF800391B0008FB7B7A6813441878BA78F978A0
:101B08000023FFF72BFF1DE0FB7B7A68134418784E
:101B1800BA78F9780123FFF721FF13E0FB7B7A6895
:101B280013441878BA78F9780223FFF717FF09E009
:101B3800FB7B7A6813441878BA78F9780323FFF79F
:101B48000DFF00BFFB780133FB70FB780F2B09D921
:101B58000023FB70BB780133BB70BB78092B01D124
:101B68000023BB70FB7B0133FB73FB7B7A68134458
:101B78001B78002BB0D100BF1037BD4680BD00BF19
:101B880080B483B000AF786000BF00BF00BF00BF63
:101B980000BF00BF0C37BD4680BC704780B400AFA3
:101BA800504A504B9B6943F01D0393614E4A4E4B7C
:101BB8005B6843F0007353604B4A4B4B5B6843F4DC
:101BC80040635360494A494B5B6823F47063536030
:101BD800464A464B5B6843F4807353604349434B22
:101BE8001A68434B13400B604049404B1A68414BFD
:101BF80013430B60404A404B1B6803F0CC3313601F
:101C08003D4A3D4B1B6803F0333313603A4A3A4B65
:101C18001B6843F0883343F0EE431360364A364B73
:101C2800DB6843F03F03D360334A334B5B6823F0F0
:101C380033135360304A304B5B6823F0CC13536046
:101C48002D4A2D4B5B6843F0111353602A4A2A4BE7
:101C58005B6823F07F435360274A274B5B6843F058
:101C680008435360244A244BDB6823F44043D36081
:101C7800224A224B5B6823F47F2353601F4A1F4B81
:101C88005B6843F4883353601C4A1C4B1B681B0C6D
:101C98001B041360194A194B1B6823F47F03136054
:101CA800164A164B1B6843F488131360134A134BE8
:101CB8001B6823F07F431360104A104B1B6843F0E6
:101CC8003B4313600D4A0D4B5B6823F0FF035360E1
:101CD8000A4A0A4B5B6843F0BB03536000BFBD462A
:101CE80080BC70470010024000000140000801401D
:101CF800F0FF000F0100A1A0000C014000100140FE
:101D080080B500AF064B4FF400721A610520FFF74B
:101D180037FF034B4FF480725A6100BF80BD00BF8C
:101D2800000C014080B500AF064B4FF400721A61F9
:101D3800044B4FF480721A610520FFF721FF00BFA2
:101D480080BD00BF000C014080B500AF064B4FF4CA
:101D580080521A610520FFF713FF034B4FF400521E
:101D68005A6100BF80BD00BF000C014080B500AFC4
:101D7800064B4FF400521A610520FFF701FF034B91
:101D88004FF480525A6100BF80BD00BF000C014073
:101D980080B500AF064B4FF480521A61044B4FF4E4
:101DA80000521A610520FFF7EBFE00BF80BD00BF9F
:101DB800000C014080B485B000AF78600023FB6060
:101DC80006E000BFFB680133FB607B68013B7B607A
:101DD8007B68002BF5D100BF1437BD4680BC704727
:101DE80080B400AF454A454B1B6823F04C53136041
:101DF800424A424B1B6823F04C4313603F4A3F4B17
:101E08001B6843F0EE4313603C4A3C4BDB6843F0ED
:101E1800C003D36002E03A4B10221A61374B9B682B
:101E280003F0C003002BF6D0354B4FF480121A6133
:101E3800324A324BDB6823F08003D36002E0304B38
:101E480010221A612D4B9B6803F08003002BF6D1FA
:101E58002B4B4FF480121A61284A284BDB6823F079
:101E68004003D36002E0264B10221A61234B9B6883
:101E780003F04003002BF6D1214B4FF480121A6176
:101E88001E4A1E4BDB6843F04003D36002E01C4B44
:101E980010221A61194B9B6803F04003002BF6D0FF
:101EA800174B4FF480121A61144A144BDB6843F045
:101EB8008003D36002E0124B10221A610F4B9B681B
:101EC80003F08003002BF6D00D4B4FF480121A61FB
:101ED8000A4A0A4B1B6823F04C531360074A074B06
:101EE8001B6823F04C431360044A044B1B6843F0FF
:101EF8007F43136000BFBD4680BC7047000C0140A3
:101F08000010014080B500AF264A264BDB6943F438
:101F18000013D361244A244B1B889BB223F001038E
:101F28009BB2138000BF204B1B889BB203F00103B8
:101F3800002BF8D1FFF754FF1B4A1B4B1B889BB2A1
:101F48006FEA43436FEA53439BB21380164A164B1A
:101F58001B889BB2C3F30E039BB21380124B502213
:101F68009A83114B09221A840F4B08229A800E4A31
:101F78000D4B9B889BB243F480639BB293800A4AC3
:101F8800094B1B889BB243F001039BB2138000BF2F
:101F9800054B1B889BB203F00103002BF8D000BF50
:101FA80080BD00BF001002400054004080B586B0DC
:101FB80000AF03463A60FB710B46BB7100237B827E
:101FC80000233B820023FB810023BB813B681B0C61
:101FD8007B813B683B817B891B0A7B827B89DBB2E7
:101FE8003B823B891B0AFB813B89DBB2BB816E4A82
:101FF8006D4B1B889BB243F480739BB213806B4B71
:102008007B6100BF684B9B8A9BB203F00103002BE6
:1020180005D17B69013B7B617B69002BF2D17B6930
:10202800002B01D10123BBE05F4B9B8A5E4AFB7901
:102038009BB25B009BB213825C4B7B6100BF5A4B27
:102048009B8A9BB203F00203002B05D17B69013BFD
:102058007B617B69002BF2D17B69002B01D10223C4
:102068009EE0514B9B8A504B1B8B504B7B6100BFB2
:102078004D4B9B8A9BB203F08003002B05D17B69F3
:10208800013B7B617B69002BF2D17B69002B01D17D
:10209800032385E0444BBA7992B21A82434B7B61A1
:1020A80000BF414B9B8A9BB203F08003002B05D1F4
:1020B8007B69013B7B617B69002BF2D17B69002B3B
:1020C80001D104236CE0384A7B8A1382374B7B6149
:1020D80000BF354B9B8A9BB203F08003002B05D1D0
:1020E8007B69013B7B617B69002BF2D17B69002B0B
:1020F80001D1052354E02C4A3B8A13822B4B7B6188
:1021080000BF294B9B8A9BB203F08003002B05D1AB
:102118007B69013B7B617B69002BF2D17B69002BDA
:1021280001D106233CE0204AFB8913821F4B7B61C7
:1021380000BF1D4B9B8A9BB203F08003002B05D187
:102148007B69013B7B617B69002BF2D17B69002BAA
:1021580001D1072324E0144ABB891382134B7B6106
:1021680000BF114B9B8A9BB203F08003002B05D163
:102178007B69013B7B617B69002BF2D17B69002B7A
:1021880001D108230CE0084A074B1B889BB243F493
:1021980000739BB2138046F2A810FFF70BFE0023D2
:1021A80018461837BD4680BD00540040A08601007F
:1021B80080B485B000AF03460A46FB711346BB7175
:1021C8000023FB8100237B7300233B734E4A4E4B55
:1021D8001B889BB243F480739BB2138000BF4A4BA9
:1021E8009B8A9BB203F00103002BF8D0464B9B8AD5
:1021F800454AFB799BB25B009BB2138200BF424BFE
:102208009B8A9BB203F00203002BF8D03E4B9B8ABB
:102218003D4B1B8B00BF3C4B9B8A9BB203F080035A
:10222800002BF8D0384BBA7992B21A8200BF364BDD
:102238009B8A9BB203F08003002BF8D0324A324BC2
:102248001B889BB243F480739BB2138000BF2E4B54
:102258009B8A9BB203F00103002BF8D02A4B9B8A80
:10226800294AFB795B001BB243F001031BB29BB206
:102278001382254A244B1B889BB243F440639BB2CC
:10228800138000BF204B9B8A9BB203F00203002BF4
:10229800F8D01D4B9B8A1C4B1B8B1B4A1A4B1B8867
:1022A8009BB223F480639BB2138000BF164B9B8ABA
:1022B8009BB203F00403002BF8D0134A124B1B887F
:1022C8009BB243F400739BB213800F4B1B8A9BB2E3
:1022D8003B730D4B1B8A9BB27B733B7B1B021AB271
:1022E8007B7B1BB213431BB2FB81074A064B1B883F
:1022F8009BB223F440639BB21380FB8918461437C2
:10230800BD4680BC704700BF0054004080B584B013
:1023180000AF03460A46FB711346BB710023FB81DD
:102328000023BB810023BB60BA79FB7911461846AC
:10233800FFF73EFF0346BB81BB790233DAB2FB7974
:1023480011461846FFF734FF0346FB81BB891A0480
:10235800FB891343BB60BB6818461037BD4680BD78
:1023680080B400AF764B1B68754A5360754B5B6849
:1023780003F08003002B04D1714B5B68704A5360F3
:102388005EE0704B5B6803F0F003002B05D16C4BEB
:102398005B685B0A6A4A536052E06A4B5B6803F009
:1023A800E003002B05D1664B5B681B0A644A536047
:1023B80046E0644B5B6803F0D003002B05D1604B0B
:1023C8005B68DB095E4A53603AE05E4B5B6803F08A
:1023D800C003002B05D15A4B5B689B09584A5360D0
:1023E8002EE0584B5B6803F0B003002B05D1544B2B
:1023F8005B681B09524A536022E0524B5B6803F04A
:10240800A003002B05D14E4B5B68DB084C4A536098
:1024180016E04C4B5B6803F09003002B05D1484B4A
:102428005B689B08464A53600AE0464B5B6803F0CA
:102438008003002B04D1424B5B685B08404A536021
:102448003F4B5B683E4A93603E4B5B6803F4806396
:10245800002B04D13A4B9B68394A93602EE0394BE4
:102468005B6803F4E063002B05D1354B9B681B09BF
:10247800334A936022E0334B5B6803F4C063002B5C
:1024880005D12F4B9B68DB082D4A936016E02D4B36
:102498005B6803F4A063002B05D1294B9B689B085C
:1024A800274A93600AE0274B5B6803F48063002B9C
:1024B80004D1234B9B685B08214A9360204B5B68DF
:1024C8001F4AD3601F4B5B6803F40053002B04D1F1
:1024D8001B4BDB681A4AD3602EE01A4B5B6803F487
:1024E8006053002B05D1164BDB681B09144AD360D7
:1024F80022E0144B5B6803F44053002B05D1104BCA
:10250800DB68DB080E4AD36016E00E4B5B6803F409
:102518002053002B05D10A4BDB689B08084AD3607F
:102528000AE0084B5B6803F40053002B04D1044B0A
:10253800DB685B08024AD36000BFBD4680BC7047B9
:10254800841600200010024090B482B000AF044608
:10255800084611461A462346FB710346BB710B46D3
:102568007B7113463B71984B1B68984A1360984AD5
:10257800974B1B6843F48033136000BF944B1B6870
:1025880003F40033002BF9D0914A914B1B6843F0B8
:102598000103136000BF8E4B1B6803F00203002B7E
:1025A800F9D08B4A8A4B5B6823F003035360884A4F
:1025B800874B1B6823F0A8531360854A844B5B68DC
:1025C80023F470135360FB79042B0BD1804A804BA2
:1025D8005B6843F4002353607C4B1B689B007B4A79
:1025E80013606CE0FB79052B0DD1794A784B5B6859
:1025F80043F440235360754B1A6813469B001344F9
:10260800724A13605BE0FB79062B0FD1704A704B5E
:102618005B6843F4801353606C4B1A6813465B0085
:1026280013445B001A46694B1A6048E0FB79072B94
:102638000DD1674A664B5B6843F4A0135360634B44
:102648001A681346DB009B1A604A136037E0FB796F
:10265800082B0BD15E4A5E4B5B6843F4C013536092
:102668005A4B1B68DB00594A136028E0FB79092B99
:102678000DD1574A564B5B6843F4E0135360534BF4
:102688001A681346DB001344504A136017E0FB79BD
:10269800412B14D14E4A4E4B5B6843F450135360A0
:1026A8004A4B1A6813469B011344484A1360474B28
:1026B8001B68484AA2FB0323DB08444A1360444AC8
:1026C800434B5B6823F480335360414A404B5B685B
:1026D80043F4803353603E4A3D4BDB6A23F0FF03EB
:1026E800D3623B4A3A4BDB6A23F48033D3623B79AB
:1026F800012B04D1364A364BDB6AD362D5E1344A22
:10270800334BDB6A43F48033D362314A304BDB6AA4
:1027180023F47063D3623B79082B0BD12C4A2C4BE2
:10272800DB6A43F4C063D362284B1B68DB00274A8B
:10273800136098E03B79092B0DD1254A244BDB6ABD
:1027480043F4E063D362214B1A681346DB00134459
:102758001E4A136087E03B790A2B0FD11C4A1C4B99
:10276800DB6A43F40063D362184B1A6813469B0074
:1027780013445B001A46154B1A6074E03B790B2B27
:102788000FD1134A124BDB6A43F41063D3620F4B29
:102798001A6813469B0013445B0013440B4A1360EA
:1027A80061E03B790C2B17D1094A094BDB6A43F4EA
:1027B8002063D362054B1A6813465B0013449B00E1
:1027C8001A46024B1A604EE00000002084160020D2
:1027D80000100240CDCCCCCC3B790D2B0FD1914AC7
:1027E800904BDB6A43F43063D3628F4B1A6813460D
:1027F8005B0013449B0013448B4A136033E03B791E
:102808000E2B0FD1874A874BDB6A43F44063D362B0
:10281800854B1A681346DB009B1A5B001A46824BED
:102828001A6020E03B79102B0BD17E4A7D4BDB6A86
:1028380043F46063D3627C4B1B681B017A4A1360C4
:1028480011E03B79142B0ED1764A764BDB6A43F4C0
:102858007063D362744B1A6813469B0013449B0041
:102868001A46714B1A607B79012B08D16D4A6D4B62
:10287800DB6AD3626C4B1B686B4A136015E17B798A
:10288800022B0BD1674A674BDB6A43F01003D36214
:10289800654B1B685B08644A136006E17B79032B70
:1028A8000ED1604A5F4BDB6A43F02003D3625E4B74
:1028B8001B685E4AA2FB03235B085B4A1360F4E0D3
:1028C8007B79042B0BD1574A564BDB6A43F0300314
:1028D800D362554B1B689B08534A1360E5E07B792C
:1028E800052B0ED14F4A4F4BDB6A43F04003D362AE
:1028F8004D4B1B684E4AA2FB03239B084A4A1360B0
:10290800D3E07B79062B0ED1464A464BDB6A43F06F
:102918005003D362444B1B68444AA2FB03239B0821
:10292800414A1360C1E07B79072B11D13D4A3D4BE9
:10293800DB6A43F06003D3623B4B1A683D4BA3FB51
:102948000213D21A520813449B08374A1360ACE0AA
:102958007B79082B0BD1334A324BDB6A43F0700387
:10296800D362314B1B68DB082F4A13609DE07B79EB
:10297800092B0ED12B4A2B4BDB6A43F08003D36221
:10298800294B1B682C4AA2FB03235B08264A1360C9
:102998008BE07B790A2B0ED1224A224BDB6A43F06B
:1029A8009003D362204B1B68214AA2FB0323DB0858
:1029B8001D4A136079E07B790B2B0ED1194A194B0C
:1029C800DB6A43F0A003D362174B1B681B4AA2FBC8
:1029D8000323DB08144A136067E07B790C2B0ED1C4
:1029E800104A104BDB6A43F0B003D3620E4B1B68EE
:1029F8000E4AA2FB0323DB080B4A136055E07B79E0
:102A08000D2B1FD1074A074BDB6A43F0C003D36283
:102A1800054B1B680A4AA2FB03239B08024A136062
:102A280043E000BF0010024084160020ABAAAAAA07
:102A3800CDCCCCCC25499224398EE338A38B2EBA41
:102A48004FECC44E7B790E2B0FD1904A8F4BDB6A2B
:102A580043F0D003D3628E4B1B685B088D4AA2FB00
:102A680003239B088A4A13601FE07B790F2B0ED142
:102A7800864A864BDB6A43F0E003D362844B1B68CB
:102A8800854AA2FB0323DB08814A13600DE07B79AA
:102A9800102B0AD17D4A7D4BDB6A43F0F003D362E9
:102AA8007B4B1B681B097A4A1360BB79012B08D141
:102AB800764A764BDB6AD362754B1B68744A13609F
:102AC8001CE1BB79022B0BD1704A704BDB6A43F0D7
:102AD8000103D3626E4B1B685B086D4A13600DE1FE
:102AE800BB79032B0ED1694A684BDB6A43F00203BA
:102AF800D362674B1B68694AA2FB03235B08644ADD
:102B08001360FBE0BB79042B0BD1604A5F4BDB6A97
:102B180043F00303D3625E4B1B689B085C4A136057
:102B2800ECE0BB79052B0ED1584A584BDB6A43F0D1
:102B38000403D362564B1B68594AA2FB03239B0824
:102B4800534A1360DAE0BB79062B0ED14F4A4F4B3C
:102B5800DB6A43F00503D3624D4B1B684F4AA2FB67
:102B680003239B084A4A1360C8E0BB79072B11D19D
:102B7800464A464BDB6A43F00603D362444B1A6865
:102B8800484BA3FB0213D21A520813449B08404A2D
:102B98001360B3E0BB79082B0BD13C4A3B4BDB6A93
:102BA80043F00703D3623A4B1B68DB08384A1360CB
:102BB800A4E0BB79092B0ED1344A344BDB6A43F0CD
:102BC8000803D362324B1B68374AA2FB03235B0816
:102BD8002F4A136092E0BB790A2B0ED12B4A2B4B5C
:102BE800DB6A43F00903D362294B1B682C4AA2FB1A
:102BF8000323DB08264A136080E0BB790B2B0ED138
:102C0800224A224BDB6A43F00A03D362204B1B683B
:102C1800264AA2FB0323DB081D4A13606EE0BB793A
:102C28000C2B0ED1194A194BDB6A43F00B03D36204
:102C3800174B1B68194AA2FB0323DB08144A1360CD
:102C48005CE0BB790D2B0ED1104A104BDB6A43F0C8
:102C58000C03D3620E4B1B68154AA2FB03239B0887
:102C68000B4A13604AE0BB790E2B23D1074A074B66
:102C7800DB6A43F00D03D362054B1B685B08054A0A
:102C8800A2FB03239B08024A136037E000100240AE
:102C9800841600209324499289888888ABAAAAAA16
:102CA800CDCCCCCC25499224398EE338A38B2EBACF
:102CB8004FECC44EBB790F2B0ED1234A224BDB6A53
:102CC80043F00E03D362214B1B68214AA2FB032366
:102CD800DB081E4A136011E0BB79102B0BD11A4A8E
:102CE800194BDB6A43F00F03D362184B1B681B09AF
:102CF800164A136002E0154B00221A60124A124B62
:102D08001B6843F08063136000BF0F4B1B6803F020
:102D18000063002BF9D00C4A0B4B1B6843F08073FF
:102D2800136000BF084B1B6803F00073002BF9D039
:102D3800054A054B5B6843F00203536000BF083740
:102D4800BD4690BC704700BF0010024084160020AA
:102D58008988888880B400AF104A104B1B6843F4F8
:102D68008033136000BF0D4B1B6803F40033002B46
:102D7800F9D00A4A094B5B6823F003035360074AFA
:102D8800064B5B6843F001035360054B1B68054A1B
:102D9800136000BFBD4680BC704700BF00100240F2
:102DA800000000208416002080B400AF0F4A0F4BAB
:102DB8001B6843F00103136000BF0C4B1B6803F052
:102DC8000203002BF9D0094A084B5B6823F0030380
:102DD8005360064A054B5B685360054B1B68054A00
:102DE800136000BFBD4680BC704700BF00100240A2
:102DF800040000208416002080B483B000AF03468E
:102E0800FB71464A454B1B6843F00103136000BF42
:102E1800424B1B6803F00203002BF9D03F4A3F4B9B
:102E28005B6823F0030353603C4A3C4B1B6823F068
:102E380080731360394A394B5B6823F480335360DD
:102E4800364A364B5B685360344A344B5B6823F42C
:102E580070135360FB79102B06D1304A2F4B5B68F7
:102E680043F4002353603AE0FB79142B06D12B4A34
:102E78002A4B5B6843F44023536030E0FB79182BFE
:102E880006D1264A254B5B6843F48013536026E03D
:102E9800FB791C2B06D1214A204B5B6843F4A01315
:102EA80053601CE0FB79202B06D11C4A1B4B5B6846
:102EB80043F4C013536012E0FB79242B06D1174A60
:102EC800164B5B6843F4E013536008E0FB791A2B58
:102ED80005D1124A114B5B6843F4501353600F4AF3
:102EE8000E4B1B6843F08073136000BF0B4B1B68CD
:102EF80003F00073002BF9D0084A084B5B6843F0D5
:102F080002035360FB79064A02FB03F31A46054B9A
:102F18001A6000BF0C37BD4680BC704700100240E5
:102F280040420F008416002080B483B000AF0346EF
:102F3800FB711D4A1C4B9B6943F0040393611B4AB8
:102F48001A4B5B6823F00F035360184A174B5B68F2
:102F580043F00B035360144A134B5B6823F0706310
:102F68005360FB79002B06D10F4A0F4B5B6843F087
:102F7800A063536012E0FB79012B06D10A4A0A4B81
:102F88005B6843F0C063536008E0FB79022B05D10E
:102F9800054A054B5B6843F08063536000BF0C37FC
:102FA800BD4680BC704700BF0010024000080140C9
:102FB80090B583B000AF0446084611461A4623462A
:102FC800FB710346BB710B467B7113463B7197F847
:102FD8002830002B02D00220FFF7A6FF3B79012BF7
:102FE80008D1FB79002B02D1FFF7DEFE1CE0FFF7CA
:102FF800B1FE19E0FB79002B0DD13B79412B03D1B0
:103008001A20FFF7F9FE0FE03B799B00DBB2184668
:10301800FFF7F2FE08E0FB79012B05D13B7E7A79B8
:10302800B9793879FFF790FA614A614B5B6823F008
:10303800F00353603B7F012B04D15D4A5C4B5B6816
:1030480053603AE03B7F022B06D1594A584B5B68E4
:1030580043F08003536030E03B7F042B06D1544A91
:10306800534B5B6843F09003536026E03B7F082B8B
:1030780006D14F4A4E4B5B6843F0A00353601CE0F7
:103088003B7F102B06D14A4A494B5B6843F0B0039B
:10309800536012E03B7F402B06D1454A444B5B68A6
:1030A80043F0C003536008E03B7F802B05D1404AC2
:1030B8003F4B5B6843F0D00353603D4A3C4B5B6831
:1030C80023F4E063536097F82030012B04D1384A89
:1030D800374B5B6853602AE097F82030022B06D103
:1030E800334A334B5B6843F4806353601FE097F8BF
:1030F8002030042B06D12E4A2D4B5B6843F4A06385
:10310800536014E097F82030082B06D1284A284B42
:103118005B6843F4C063536009E097F82030102BD4
:1031280005D1234A224B5B6843F4E0635360204A8D
:103138001F4B5B6823F46053536097F82430012BCE
:1031480004D11B4A1A4B5B6853602AE097F8243075
:10315800022B06D1164A164B5B6843F400535360A2
:103168001FE097F82430042B06D1114A104B5B68F6
:1031780043F42053536014E097F82430082B06D109
:103188000B4A0B4B5B6843F44053536009E097F8D4
:103198002430102B05D1064A054B5B6843F4605375
:1031A8005360FFF7DDF800BF0C37BD4690BD00BF88
:1031B8000010024080B588B006AF03460A46FB718E
:1031C8001346BB71FB79012B10D1BB790493012302
:1031D80003930123029308230193002300930123FF
:1031E800002200210120FFF7E3FE76E0FB79022BA5
:1031F80010D1BB7904930123039301230293042381
:103208000193002300930123002200210120FFF7EE
:10321800CFFE62E0FB79042B10D1BB790493012324
:1032280003930123029302230193002300930123B4
:10323800002200210120FFF7BBFE4EE0FB79082B9E
:1032480010D1BB7904930123039301230293012333
:103258000193002300930123002200210120FFF79E
:10326800A7FE3AE0FB790A2B10D1BB79049301231E
:10327800039301230293042301930A230093042355
:10328800022204210120FFF793FE26E0FB79302B70
:1032980010D1BB79049301230393022302930123E2
:1032A8000193012300930623012201210120FFF746
:1032B8007FFE12E0FB79482B0FD1BB7904930123E1
:1032C800039302230293012301930C230093062303
:1032D800022204210120FFF76BFE00BF0837BD461C
:1032E80080BD80B582B000AF0346FB71FB79002139
:1032F8001846FFF75FFF00BF0837BD4680BD0000D6
:1033080080B400AF044A044B1B6823F48073136035
:1033180000BFBD4680BC70470070004080B400AF5D
:10332800044A044B1B6843F48073136000BFBD4616
:1033380080BC70470070004080B400AF044A044B62
:10334800DB6943F0C053D36100BFBD4680BC704702
:103358000010024080B485B000AF03460A46FB80E7
:103368001346BB800023FB60074BFB60FA88FB68B1
:103378001344FB60FB681A46BB88136000BF143710
:10338800BD4680BC704700BF006C004080B485B06B
:1033980000AF0346FB800023FB60074BFB60FA8805
:1033A800FB681344FB60FB681B889BB21846143704
:1033B800BD4680BC704700BF006C004080B483B03D
:1033C80000AF0346FB71084997F907305B09FA79A2
:1033D80002F01F02012000FA02F241F8232000BF88
:1033E8000C37BD4680BC704700E100E080B500AFF7
:1033F800414A414B9B6943F0110393613E4A3E4B5E
:10340800DB6943F00203D3613C4B00221A803B4B3B
:1034180000229A80394B00221A82384B00221A84E3
:10342800364B0022A3F84420344B00229A82334BB7
:1034380000221A83314B00229A83304B00229A8152
:103448002E4A2F4B1B682F49A1FB03139B0C9BB2E1
:10345800013B9BB21385294B40F29D429A85274A2E
:10346800264B1B8B9BB243F4C04343F060039BB2D3
:103478001383224A214B9B8B9BB243F4C04343F0F6
:1034880060039BB293831D4A1C4B1B8C9BB243F475
:10349800885343F011039BB21384184A174BB3F8AF
:1034A80044309BB26FEA43436FEA53439BB2A2F89E
:1034B8004430124A114B9B899BB243F001039BB2E3
:1034C80093810E4A0D4B9B8A9BB243F001039BB23A
:1034D80093820A4B00229A86084B00221A87074BD0
:1034E80000229A87054B0022A3F840201D20FFF7F1
:1034F80065FF00BF80BD00BF00100240000400400F
:103508004401002083DE1B4380B400AF0D4A0D4BFD
:103518001B8A9BB223F001039BB21382094A094B11
:103528009B899BB243F001039BB29381054A054BEB
:103538001B889BB243F001039BB2138000BFBD46BA
:1035480080BC70470004004080B483B000AF0346DD
:103558000A46FB711346BB80FB79013B032B1CD841
:1035680001A252F823F000BF813500088935000810
:1035780091350008993500080F4ABB8893860DE0FD
:103588000D4ABB88138709E00B4ABB88938705E07F
:10359800094ABB88A2F8403000E000BF064A064B43
:1035A8001B8A9BB223F001039BB2138200BF0C3726
:1035B800BD4680BC704700BF0004004080B400AF27
:1035C80000BFBD4680BC704780B582B000AF0346DF
:1035D800FB71154B00221A62FFF7F0FFFFF7EEFFB1
:1035E800FFF7ECFF104B00221A62FFF7E7FFFFF727
:1035F800E5FFFFF7E3FFFB79012B02D0042B04D092
:1036080007E0094B01221A6203E0074B05221A6200
:1036180000BFFFF7D3FFFFF7D1FFFFF7CFFF00BFD2
:103628000837BD4680BD00BF0010024080B483B09B
:1036380000AF7860104A104B9B889BB243F0100390
:103648009BB293800C4A7B681B0C9BB203F00F0360
:103658009BB21381084B7A6892B29A81064A064B4C
:103668009B889BB223F010039BB2938000BF0C375A
:10367800BD4680BC704700BF0028004080B500AF41
:10368800294A294BDB6943F0C053D361274A274BAA
:103698001B6843F480731360234B1B6A03F40043D5
:1036A800B3F5004F3DD0204A1F4B1B6A43F48033CB
:1036B8001362FFF783FFFFF781FFFFF77FFF1A4AC7
:1036C800194B1B6A23F4803313620120FFF77CFF38
:1036D80000BF154B1B6A03F00203022BF9D1124AF3
:1036E800114B1B6A43F48073136247F6FF70FFF7B0
:1036F8009DFF0D4A0C4B1B6A43F4004313620C4AAE
:103708000B4B9B889BB223F008039BB2938000BFAE
:10371800074B9B889BB203F00803002BF8D00123CA
:1037280000E00023184680BD0010024000700040F1
:103738000028004090B597B000AF7860396000234A
:103748007B6500233B650023FB640023BB640023E7
:103758007B6400233B640023FB634FF000034FF0BE
:103768000004C7E90C344FF000034FF00004C7E928
:103778000A347B6803F52843C033654AA2FB032358
:10378800DA0B644B13444FF00004C7E90C34D7E953
:103798000C3464084FEA3303C7E90A347B687B6258
:1037A8007B6A5D4AA2FB03235B093B623A6A1346C4
:1037B8001B019B1A9B001A467B6A9B1AFB633B6A98
:1037C8007B627B6A544AA2FB03235B093B623A6A29
:1037D80013461B019B1A9B001A467B6A9B1A3B6483
:1037E8003B6A7B627B6A4D4AA2FB03231B093B624F
:1037F8003A6A13465B001344DB001A467B6A9B1A3D
:103808007B64D7E90A014FF007024FF00003FDF788
:10381800EBFC1C461346FB64BB6A03F5FA432C33E6
:10382800FB61FB699B0003333D4AA2FB0323DB0BCF
:10383800BB61BB693B4A02FB03F39B08FA69D31AD5
:103848007B617B699B000333374AA2FB0323DB09B7
:103858003B613B6940F2B55202FB03F39B087A696E
:10386800D31AFB60FA6813469B00134402332F4AAD
:10387800A2FB0323DB09BB60BA681346DB001344D1
:103888001A01134402332A4AA2FB03239B08FA684D
:10389800D31A0133BB64BB68254AA2FB0323DA08A9
:1038A80013465B0013449B001A46BB689B1A0333FC
:1038B8003B65BB69642202FB03F23B691A44BB689F
:1038C8001B49A1FB0313DB081344A3F596537B653F
:1038D8007B6D9AB23B68DA803B6DDAB23B685A710D
:1038E800BB6CDAB23B68DA707B6CDAB23B681A7090
:1038F8003B6CDAB23B685A70FB6BDAB23B689A7081
:10390800FB6CDAB23B681A7100BF5C37BD4690BDEC
:1039180007452EC2177B4A0089888888ABAAAAAABD
:10392800BD066B39B13A020073B06D16D7802BD63D
:10393800CDCCCCCC80B483B000AF0023FB80074B48
:103948009B8BFB80054B1B8B9BB21A04FB88134394
:1039580018460C37BD4680BC704700BF00280040A1
:1039680080B400AF064B00229A60054B054A5A60A6
:10397800034B07221A6000BFBD4680BC704700BFDA
:1039880010E000E03F19010080B400AF0A4B0022AC
:103998001A700A4B00221A700022094B114619703E
:1039A800084B11461970084B11461970074B1A70CD
:1039B80000BFBD4680BC70479C1600209D160020A5
:1039C800A8160020B016002094160020A01600208B
:1039D80080B483B000AF7860214B1B78002B03D1F3
:1039E800204B214A1A612FE01D4B1B78022B0CD16A
:1039F8001E4B9B689B0BDBB203F00303DAB21C4B34
:103A08001A70184B1B4A1A611EE0154B1B78042BC1
:103A18001AD1164B9B689B0BDBB29B00DBB203F001
:103A28000C03DAB2144B1A700E4B0F4A1A61124B80
:103A38001A780F4B1B781343DAB27B681A70084B5D
:103A480000221A70012306E0054B1B780133DAB215
:103A5800034B1A70002318460C37BD4680BC7047CC
:103A6800C80100200010014000100008000C0140AF
:103A7800C901002000080010CA01002080B485B0E8
:103A880000AFF8607B600B46FB721346BB72FB68A5
:103A98001B78DBB2002B22D1FB7A002B1BD0FB68F2
:103AA8005B68591CFA685160062B40F28780FB68F6
:103AB80001221A70BB691B78DAB2BB7A1343DBB2F6
:103AC800BA69194611707A681278D2B21343DAB219
:103AD8007B681A7072E0FB6800225A606EE0FB682F
:103AE8001B78DBB2012B2FD1FB7A002B0AD0FB68A5
:103AF8005B68591CFA685160972B5FD9FB680222F2
:103B08001A705BE0FB6800221A70BB691B78DBB295
:103B18005AB297F90A30DB435BB213405BB2DAB2B0
:103B2800BB691A707B681B78DBB2BA7A9A4206D0F6
:103B3800BB691B78DBB2002B40D100233FE07B68D8
:103B480000221A7002233AE0FB681B78DBB2022BD2
:103B580034D1FB7A002B11D0FB685B68591CFA68DA
:103B68005160A12B2AD9FB6897225A607B681B7881
:103B7800DBB2BA7A9A4221D1012320E0FB68002205
:103B88001A70BB691B78DBB25AB297F90A30DB436B
:103B98005BB213405BB2DAB2BB691A707B681B7800
:103BA800DBB2BA7A9A4206D0BB691B78DBB2002B2B
:103BB80004D1002303E07B6800221A70032318460F
:103BC8001437BD4680BC704780B582B000AF7860BE
:103BD8007B681B78DBB20C2B02D100F065F946E05C
:103BE8007B681B78DBB2062B02D101F08BFE3EE02E
:103BF8007B681B78DBB2052B02D101F0B9FE36E0F9
:103C08007B681B78DBB20A2B02D100F053F92EE057
:103C18007B681B78DBB2032B02D101F049FE26E05A
:103C28007B681B78DBB2092B02D100F049F91EE052
:103C38007B681B78DBB20E2B02D101F09FFE16E0E9
:103C48007B681B78DBB2072B02D101F097FE0EE0F0
:103C58007B681B78DBB20D2B02D101F08FFE06E0EA
:103C68007B681B78DBB20F2B01D101F087FE00BF08
:103C78000837BD4680BD000080B584B002AFBB1DCB
:103C88001846FFF7A5FE0346002B00F087800323A4
:103C9800FB71BB7903F00403D9B2424B0093424B4A
:103CA80004224248FFF7EAFE0346FB71FB79022B28
:103CB80002D101F0AFFD0BE0FB79012B02D101F03D
:103CC800EAFD05E0FB79002B02D13748FFF77CFFBE
:103CD800BB7903F00803D9B2324B0093324B082268
:103CE8003348FFF7CBFE0346FB71FB79022B02D169
:103CF80001F0BCFD0BE0FB79012B02D101F0D1FDF5
:103D080005E0FB79002B02D12748FFF75DFFBB795F
:103D180003F00203D9B2234B0093234B0222254818
:103D2800FFF7ACFE0346FB71FB79022B02D101F0D1
:103D38006AFD0BE0FB79012B02D101F0A5FD05E03E
:103D4800FB79002B02D11848FFF73EFFBB7903F03F
:103D58000103D9B2134B0093134B01221648FFF706
:103D68008DFE0346FB71FB79022B02D101F044FD65
:103D78000BE0FB79012B02D101F07FFD05E0FB7917
:103D8800002B02D10848FFF71FFF064B1B78DBB258
:103D9800002B04D1044B00221A7000E000BF083742
:103DA800BD4680BD9C1600209D160020A016002050
:103DB800B016002094160020A816002080B582B006
:103DC80000AF0346FB71374B1B78F02B63D0FB79B0
:103DD800E02B60D0FB79702B02D101F0CFFD5AE0C7
:103DE800FB79692B57D0FB79722B03D1012003F0A3
:103DF800D3FA50E0FB797A2B4DD0FB796B2B03D1AA
:103E0800032003F0C9FA46E0FB79732B03D10220A3
:103E180003F0C2FA3FE0FB79742B03D1022003F0D0
:103E2800BBFA38E0FB796C2B35D0FB79752B03D1C5
:103E3800002003F0B1FA2EE0FB797D2B2BD0FB7923
:103E4800712B28D0FB79792B02D101F05BFD22E0A0
:103E5800FB797B2B02D101F02BFD1CE0FB794A2B6F
:103E680002D100F04BFE16E0FB797C2B02D101F069
:103E78007FFD10E0FB79772B02D101F03FF90AE0D2
:103E8800FB79662B02D101F0A5F804E0FB795A2BE7
:103E980001D101F0BFFC034AFB79137000BF08375A
:103EA800BD4680BDCB01002080B400AF00BFBD4639
:103EB80080BC704780B400AF00BFBD4680BC70476F
:103EC80080B400AF00BFBD4680BC704790B589B0D4
:103ED80000AF78604FF000017868FDF737F90346C6
:103EE800002B03D07B6883F0004300E07B683B61D4
:103EF8003869FDF753F90346FB61F869FCF734FFAD
:103F0800034619463869FCF779FE0346FB602B49DE
:103F1800F868FCF77DFF03461846FCF7E5FA034608
:103F28000C461846214605F079FF03460C4618460C
:103F38002146FCF7C7FD0346BB6100237B6136E0E1
:103F48007B69C3F10300FA691D4B83FB02139910C7
:103F5800D317C91A0B469B000B445B00D11ACAB28F
:103F6800184B1A547B69C3F10700BA69144B83FBD9
:103F780002139910D317C91A0B469B000B445B0018
:103F8800D11ACAB20F4B1A54FB690D4A82FB0312AD
:103F98009210DB17D31AFB61BB69094A82FB031233
:103FA8009210DB17D31ABB617B6901337B617B6994
:103FB800032BC5DD00BF2437BD4690BD00401C461D
:103FC80067666666CC010020F0B589B006AF7860F8
:103FD800174B1B78DBB21E46154B5B78DBB29E464F
:103FE800134B9B78DBB21A46114BDB78DBB21946D0
:103FF8000F4B1B79DBB218460D4B5B79DBB21C46C5
:104008000B4B9B79DBB21D46094BDB79DBB2059381
:104018000495039402900191009273463246054933
:10402800786805F0C7FA00BF0C37BD46F0BD00BF81
:10403800CC0100202CAF0008B0B58AB000AF554BBA
:104048001B681868002300220021FDF735FD514B3D
:104058001B689B681B691A6807F118031146184604
:10406800FDF7BCFB07F11800002301220121FDF731
:1040780023FD494B1A6807F1180311461846FDF746
:10408800ADFB464B3C1D1D460FCD0FC42B6823606E
:1040980007F118023B1D4249184605F08BFA381DF6
:1040A800002305220121FDF707FD07F11803184633
:1040B800FFF78AFF07F11800002303220121FDF70B
:1040C800FBFC384B1B78DBB2022B15D1364B1B7827
:1040D800DBB2032B05D9344B1B78DBB20233D9B2E0
:1040E80004E0314B1B78DBB20133D9B20023042240
:1040F8002E48FDF7E1FC46E02A4B1B78DBB2032B88
:104108002AD1294B1B78DBB2032B05D9264B1B7808
:10411800DBB20233D9B204E0234B1B78DBB20133A4
:10412800D9B2002303222248FDF7C6FC1E4B1B7898
:10413800DBB2032B05D91C4B1B78DBB20233D9B297
:1041480004E0194B1B78DBB20133D9B200230222F9
:104158001748FDF7B1FC16E0124B1B78DBB2002BB9
:1041680006D10023072201211248FDF7A5FC0AE029
:104178000C4B1B78DBB2012B05D100230722012150
:104188000D48FDF799FCFDF781FB034618462837D3
:10419800BD46B0BDC0160020B816002070AF00089C
:1041A80040AF0008BC160020D40100204CAF000826
:1041B80050AF000854AF000864AF000880B582B063
:1041C80000AF78600A4B02221A700A4A7B681360B3
:1041D800084B1B689B681B691B68074A1360064BE2
:1041E8001B681846FFF772FE00BF0837BD4680BD42
:1041F800BC160020C0160020B816002080B584B078
:1042080000AF174BFB60174BBB6000237B6000239C
:104218007B601DE07B68C3F10703134AD35CDBB204
:104228001846FCF79DFD0346B9681846FCF7F0FDF3
:1042380003461946F868FCF7E3FC0346FB600B49A4
:10424800B868FCF7E5FD0346BB607B6801337B601B
:104258007B68072BDEDDFB6818461037BD4680BD3E
:10426800ACC5273717B7D138CC0100200000204152
:1042780090B583B000AF0346FB717F4B1B78DBB270
:10428800022B3BD1FB79002B10D17C4B1B78DBB286
:10429800062B07D8794B1B78DBB20133DAB2774BA0
:1042A8001A70E3E0744B01221A70DFE0FB79012BEE
:1042B80010D1724B1B78DBB2002B07D06F4B1B78E9
:1042C800DBB2013BDAB26D4B1A70CFE06A4B0022C9
:1042D8001A70CBE0FB79022B03D1674B03221A70CB
:1042E800C4E0FB79032B40F0C180654B1B689B68D9
:1042F8001B69644A12681A600323B8E05E4B1B7896
:10430800DBB2032B59D1FB79002B1BD15B4B1B78FC
:10431800DBB21A465C4B9B5CDBB2082B0AD8574BC6
:104328001B78DBB2584AD25CD2B20132D1B2564ABB
:10433800D15439E0514B1B78DBB21A46524B00215D
:10434800995431E0FB79012B1BD14C4B1B78DBB224
:104358001A464D4B9B5CDBB2002B0AD0474B1B78AF
:10436800DBB2494AD25CD2B2013AD1B2464AD15400
:104378001AE0424B1B78DBB21A46434B0921995489
:1043880012E0FB79022B03D13B4B02221A700BE09F
:10439800FB79032B08D13A4B1B689B681B69394A88
:1043A80012681A60032362E0354B1B689B681C691E
:1043B800FFF724FF0346236058E02F4B1B78DBB23E
:1043C800012B2CD1FB79002B03D12B4B00221A7027
:1043D8004CE0FB79012B06D1274B02221A70274BA0
:1043E80007221A7042E0FB79022B0CD1244B1B6880
:1043F8009B681B69234A12681A60224B1B6818467F
:10440800FFF764FD32E0FB79032B2FD11C4B1B68AF
:104418009B681B691B4A12681A60032327E0164B26
:104428001B78DBB2002B21D1FB79002B06D1124B74
:1044380002221A70114B00221A7017E0FB79012B27
:1044480003D10D4B01221A7010E0FB79022B01D128
:1044580003230CE0FB79032B08D1094B1B689B68ED
:104468001B69084A12681A60032300E004231846EF
:104478000C37BD4690BD00BFBC160020D4010020FB
:10448800C0160020B8160020CC01002080B483B0EC
:1044980000AF78600B46FB70FB78002B06D07B687A
:1044A800074A1188927819809A7003E07B68054A58
:1044B8001068186000BF0C37BD4680BC704700BF4D
:1044C80084AF000888AF000880B483B000AF78607C
:1044D800154B1B78DBB2002B17D1144B1B78DBB2C2
:1044E800002B09D17B6812491A460B4603CB106092
:1044F80051601B78137211E07B680E4A10681860CF
:104508009188927999809A7108E07B680A491A46DD
:104518000B4603CB106051601B78137200BF0C3739
:10452800BD4680BC704700BFEF1100206812002014
:104538008CAF000898AF0008A0AF000880B582B023
:1045480000AF78607B6800221A700A4B1B78DBB2D8
:10455800002B0AD0074B1B78DBB21A46064B53F8E0
:1045680022301946786805F049F800BF0837BD467B
:1045780080BD00BFEF110020FC00002080B582B094
:1045880000AF7860054B1B681A460549786805F046
:1045980011F800BF0837BD4680BD00BF18120020C3
:1045A800ACAF000880B582B000AF7860054B1B78CF
:1045B800DBB21A460449786804F0FCFF00BF0837EC
:1045C800BD4680BDD0110020B0AF000880B582B0D4
:1045D80000AF7860104B1B78DBB2002B11D00F4B6B
:1045E8001B78622B05D80D4B1B780133DAB20B4BC5
:1045F8001A700A4B1B781A460949786804F0DAFFE2
:1046080006E0064B1B781A460649786804F0D2FF84
:1046180000BF0837BD4680BDF0110020D50100203D
:10462800B4AF0008BCAF000880B500AF124913480A
:1046380003F0F0FC0346002B19D0114B1A68114BFC
:104648001B689A4213D1104B1B889AB20F4B1B88D8
:104658009BB29A420BD10E4B1A680E4B1B689A42BA
:1046680005D10D4B1A680D4B1B689A4201D00123E6
:1046780000E00023184680BDA86B0020D86B0020FE
:1046880038010020300100206E1200206C1200203A
:10469800201200203C0100201C12002034010020C0
:1046A80080B582B000AF7860FFF7BEFF0346002BED
:1046B80006D07B6807491A460B461B88138005E01D
:1046C8007B6805491A460B461B88138000BF0837CC
:1046D800BD4680BDC4AF0008C8AF000890B583B020
:1046E80000AFFEF71BFE0E4B1B681846FBF7FCFEDF
:1046F8004FF000020B4BFBF74BFF03460C461846E6
:104708002146FCF707FA0346FB80FB881946282058
:10471800FEF720FEFEF7F4FD00BF0C37BD4690BD46
:10472800601200200000594098B500AF1C4B1B6870
:104738001846FBF7D9FE18A3D3E90023FBF776FD4B
:1047480003460C4618462146FCF704FA0246144B69
:104758001A60134B1B6813491846FCF70BFD0346F8
:10476800002B12D00E4B1B681846FBF7BDFE0AA3A0
:10477800D3E90023FBF758FD03460C4618462146AB
:10478800FCF7E8F90246064B1A60FFF7A7FF00BFDF
:1047980098BD00BFAFF300807B14AE47E17A843F39
:1047A800601200200000204198B500AF124B1B6832
:1047B8004FF000011846FCF7E7FC0346002B12D027
:1047C8000D4B1B681846FBF78FFE09A3D3E900239E
:1047D800FBF72AFD03460C4618462146FCF7BAF9B2
:1047E8000246054B1A60FFF779FF00BF98BD00BF6E
:1047F8007B14AE47E17A843F6012002090B583B005
:1048080000AF7860174B1B6817491846FCF700FB88
:1048180003461846FCF7C2FC0346144A82FB0312FF
:104828005211DB17D41A0F4B1B680F491846FCF7B7
:10483800EFFA03461846FCF7B1FC02460B4B83FB24
:1048480002135911D317CB1A642101FB03F3D31AAE
:1048580022460749786804F0ADFE00BF0C37BD4614
:1048680090BD00BF601200200000C8421F85EB51B8
:10487800CCAF000880B582B000AF7860194B1B68D8
:104888004FF47A7202FB03F2174BA3FB0213D21AFE
:1048980052081344DB0A154A82FB03125211DB1734
:1048A800D01A104B1B684FF47A7202FB03F20E4BBE
:1048B800A3FB0213D21A52081344DB0A1A460B4B05
:1048C80083FB02135911D317CB1A642101FB03F39D
:1048D800D31A02460649786804F06CFE00BF083710
:1048E800BD4680BDD06B0020010110001F85EB5133
:1048F800D8AF000880B584B000AF78602D4B1B6836
:104908002D491846FCF784FA03461846FCF746FC7E
:1049180003462A4A82FB03125211DB17D31AFB60A3
:10492800FB68632B1ADC234B1B6823491846FCF7EA
:104938006FFA03461846FCF731FC02461F4B83FB0F
:1049480002135911D317CB1A642101FB03F3D31AAD
:10495800FA681B49786804F02DFE26E0FB68B3F579
:104968007A7F1CDA134B1B6816491846FCF750FA75
:1049780003461846FCF712FC0146134B83FB012340
:104988009A10CB17D21A13469B0013445B00CA1A1D
:104998001346FA680D49786804F00CFE05E07B6858
:1049A8000B4A1068186012791A7100BF1037BD469B
:1049B80080BD00BF5C1200200000C8421F85EB517B
:1049C800D8AF00080000204167666666E4AF0008BB
:1049D800F0AF000880B584B000AF78601F4B1B684B
:1049E8001F491846FCF714FA03461846FCF7D6FB8D
:1049F80003461C4A82FB03125211DB17D31AFB60D1
:104A0800FB6803F2E73340F2CE72934206D97B6823
:104A1800154A1068186092889A801BE00F4B1B6833
:104A280012491846FCF7F4F903461846FCF7B6FB9A
:104A380001460F4B83FB01239A10CB17D21A13465A
:104A48009B0013445B00CA1A1346FA680949786840
:104A580004F0B0FD00BF1037BD4680BD64120020D1
:104A68000000C8421F85EB51F8AF00080000204144
:104A78006766666600B0000880B483B000AF7860EF
:104A8800194B1B78DBB2012B06D17B68174A1068DB
:104A9800186092889A8022E0134B1B78DBB2002BB7
:104AA80006D17B68124A1068186092889A8016E0CE
:104AB8000D4B1B78DBB2032B06D17B680D4A1068BF
:104AC800186092889A800AE0074B1B78DBB2022BA9
:104AD80005D17B68084A1068186092889A8000BFE0
:104AE8000C37BD4680BC7047D111002008B00008C3
:104AF80010B0000818B0000820B0000880B500AF5A
:104B08000A4B1B78DBB2002B0BD1084B01221A7021
:104B1800074B084A1A60084B01221A7003F046FC3A
:104B280002E0024B00221A7000BF80BDD0110020A5
:104B3800046C002028B000080800002080B582B06E
:104B480000AF7860054B1B78DBB219467868FFF731
:104B58009DFC00BF0837BD4680BD00BFD0110020B6
:104B680080B500AF1F4B1B681F4A13601F4B1B8883
:104B78009AB21F4B1A801F4B1B681F4A13601F4BAA
:104B88001B681F4A13601F4B1B889AB21E4B1A8062
:104B9800FEF7C4FB144B1B689BB219461020FEF7A6
:104BA800D9FB134B1B889BB219461420FEF7D2FB86
:104BB800114B1B689BB219461820FEF7CBFB104B14
:104BC8001B689BB219461C20FEF7C4FB0E4B1B88C2
:104BD8009BB219462020FEF7BDFBFEF791FB00BFF4
:104BE80080BD00BF30010020380100206C12002079
:104BF8006E1200203C010020201200203401002009
:104C08001C120020D86B0020A86B002080B582B051
:104C180000AF7860FFF708FD0346002B04D07B68DF
:104C2800064A1068186005E07B68054A1188927882
:104C380019809A7000BF0837BD4680BD88AF00084C
:104C480084AF000880B500AF194B00221A6043F208
:104C5800B063184A1360184A13603221174B0A468A
:104C68001A80174B0A461A809623164A1360164A6A
:104C78001360164B01221A70FEF750FB0E4B1B688F
:104C88009BB219461020FEF765FB0D4B1B889BB2A3
:104C980019461420FEF75EFB0B4B1B689BB21946A6
:104CA8001820FEF757FBFEF72BFB00BF80BD00BFA7
:104CB8001812002030010020380100206C1200205A
:104CC8006E1200203C01002020120020F411002068
:104CD80080B483B000AF78600F4B1B6843F2B062BA
:104CE800934208D10D4B1B889BB2322B03D10C4B3E
:104CF8001B68962B04D07B680A4A1068186005E088
:104D08007B68094A1188927819809A7000BF0C371D
:104D1800BD4680BC704700BF300100206C120020E7
:104D28003C01002088AF000884AF000880B500AFC0
:104D3800044B00221A70044B00221A80FDF728F851
:104D480000BF80BDD11100207012002080B483B054
:104D580000AF78600A4B1B78DBB2002B06D17B686A
:104D6800084A1188927819809A7003E07B68064A8D
:104D78001068186000BF0C37BD4680BC704700BF84
:104D8800D111002084AF000888AF000880B500AFBB
:104D9800074B1B78DBB2022B02D1FFF7C7FF05E0F8
:104DA800034B02221A70034B01221A8000BF80BDF8
:104DB800D11100204201002080B483B000AF786098
:104DC8000A4B1B78DBB2022B06D17B68084A118894
:104DD800927819809A7003E07B68064A1068186018
:104DE80000BF0C37BD4680BC704700BFD111002002
:104DF80084AF000888AF000880B400AF084B9B68F8
:104E0800642B02D9064B64229A60054B9B68012BE0
:104E180002D8034B02229A6000BFBD4680BC70478F
:104E28003C6B002080B500AF044B9B680133034AFC
:104E38009360FFF7E1FF00BF80BD00BF3C6B00201F
:104E480080B500AF044B9B68013B034A9360FFF7B2
:104E5800D3FF00BF80BD00BF3C6B002080B582B08F
:104E680000AF7860054B9B681A460549786804F0DE
:104E7800A1FB00BF0837BD4680BD00BF3C6B0020CA
:104E88002CB0000880B400AF114B1A68114B1B6896
:104E9800642101FB03F39A4206D90E4B1B68642276
:104EA80002FB03F30A4A1360094B1A680A4B1B6892
:104EB800642101FB03F39A4206D2074B1B68642264
:104EC80002FB03F3024A136000BFBD4680BC704773
:104ED8003C6B00203C0100203401002080B500AF6D
:104EE800044B1B686433034A1360FFF7CBFF00BF12
:104EF80080BD00BF3C6B002080B500AF044B1B6831
:104F0800643B034A1360FFF7BDFF00BF80BD00BFCD
:104F18003C6B002080B582B000AF7860074B1B68FF
:104F2800074AA2FB03235B091A460649786804F07E
:104F380041FB00BF0837BD4680BD00BF3C6B002069
:104F48001F85EB512CB0000880B400AF084B1B69DB
:104F5800142B02D9064B14221A61054B1B69002B2E
:104F680002D1034B01221A6100BFBD4680BC7047C5
:104F78003C6B002080B500AF044B1B690133034A2A
:104F88001361FFF7E1FF00BF80BD00BF3C6B00204D
:104F980080B500AF044B1B69013B034A1361FFF75F
:104FA800D3FF00BF80BD00BF3C6B002080B582B03E
:104FB80000AF7860054B1B691A460549786804F00C
:104FC800F9FA00BF0837BD4680BD00BF3C6B002022
:104FD8002CB0000880B500AF074B1B78DBB2012B63
:104FE80002D1FFF7A3FE05E0034B01221A70034B21
:104FF80001221A8000BF80BDD1110020420100208B
:1050080080B483B000AF78600A4B1B78DBB2012B09
:1050180006D17B68084A1188927819809A7003E053
:105028007B68064A1068186000BF0C37BD4680BC14
:10503800704700BFD111002084AF000888AF000876
:1050480080B400AF0C4B1B6864330B4A13600B4BE6
:105058001B68642202FB03F2074B1B689A4206D2C4
:10506800064B1B68642202FB03F3034A136000BF6C
:10507800BD4680BC704700BF300100203C010020C5
:1050880080B400AF0E4B1B68642B04D90C4B1B6813
:10509800643B0B4A13600B4B1B68642202FB03F250
:1050A800074B1B689A4206D9064B1B68642202FB11
:1050B80003F3034A136000BFBD4680BC704700BFBE
:1050C800300100203401002080B582B000AF786044
:1050D800074B1B68074AA2FB03235B091A460649CC
:1050E800786804F067FA00BF0837BD4680BD00BF86
:1050F800300100201F85EB512CB0000880B500AFAF
:10510800074B1B78DBB2032B02D1FFF70FFE05E03C
:10511800034B03221A70034B0A221A8000BF80BD7A
:10512800D11100204201002080B483B000AF786024
:105138000A4B1B78DBB2032B06D17B68084A11881F
:10514800927819809A7003E07B68064A10681860A4
:1051580000BF0C37BD4680BC704700BFD11100208E
:1051680084AF000888AF000880B400AF094B1B6803
:105178000133084A1360074B1A68064B9B689A422A
:1051880004D3044B9B68013B024A136000BFBD4631
:1051980080BC70475C6B002080B400AF094B1B6873
:1051A800013B084A1360074B1A68074B1B689A4271
:1051B80003D8054B1B68034A136000BFBD4680BC7B
:1051C800704700BF5C6B00203401002080B582B0BE
:1051D80000AF7860054B1B681A460549786804F0EB
:1051E800E9F900BF0837BD4680BD00BF5C6B0020F1
:1051F8002CB0000880B400AF094B9B680133084A03
:105208009360074B9A68074B1B689A4203D3054B78
:105218001B68034A936000BFBD4680BC704700BF4F
:105228005C6B00203C01002080B400AF094B9B68F8
:10523800013B084A9360074B9A68064B1B689A42E1
:1052480004D8044B1B680133024A936000BFBD4673
:1052580080BC70475C6B002080B582B000AF78607E
:10526800054B9B681A460549786804F0A3F900BF06
:105278000837BD4680BD00BF5C6B00202CB000081D
:1052880080B400AF084B1B690133074A1361064B12
:105298001B69B3F5967F03D9034B4FF496721A61D5
:1052A80000BFBD4680BC70475C6B002080B400AF77
:1052B800074B1B69013B064A1361054B1B69012B10
:1052C80002D8034B01221A6100BFBD4680BC70475B
:1052D8005C6B002080B582B000AF7860054B1B691D
:1052E8001A460549786804F065F900BF0837BD46D5
:1052F80080BD00BF5C6B002030B0000880B500AFF7
:105308000F4B1B889BB201339AB20D4B1A800C4B82
:105318001B889BB2B3F5FA7F03D9094B4FF4FA7295
:105328001A80074B1B889BB2184602F003FC054BFA
:105338001B78DBB2012B01D103F058FA00BF80BD06
:105348006C1200206812002080B500AF0E4B1B883D
:105358009BB2013B9AB20C4B1A800B4B1B889BB239
:10536800002B02D1084B01221A80074B1B889BB2E5
:10537800184602F0DFFB054B1B78DBB2012B01D18D
:1053880003F034FA00BF80BD6C12002068120020C0
:1053980080B582B000AF78600F4B1B889BB20F4A74
:1053A800A2FB0323DB089BB218460B4B1B889AB25F
:1053B8000A4BA3FB0213D9080B469B000B445B0066
:1053C800D31A9BB202460649786804F0F3F800BF86
:1053D8000837BD4680BD00BF6C120020CDCCCCCCB8
:1053E80038B0000880B400AF0A4B1B680133094A83
:1053F8001360084B1A68084B1B689A4202D9064B7F
:105408001B6801E0034B1B68024A136000BFBD46DE
:1054180080BC7047340100203C01002080B400AFFC
:105428000B4B1B68012B04D9094B1B68013B084A2D
:105438001360074B1B68042B02D9054B1B6800E05F
:105448000523034A136000BFBD4680BC704700BFF8
:105458003401002080B582B000AF7860054B1B682E
:105468001A460549786804F0A5F800BF0837BD4614
:1054780080BD00BF340100202CB0000880B400AF0C
:105488000A4B1B680133094A1360084B1B68B3F5C4
:10549800967F02D8054B1B6801E04FF49673034AC8
:1054A800136000BFBD4680BC704700BF3C010020B0
:1054B80080B400AF0C4B1B68012B04D90A4B1B6846
:1054C800013B094A1360084B1A68084B1B689A424B
:1054D80002D2064B1B6801E0034B1B68024A1360AB
:1054E80000BFBD4680BC70473C010020340100204D
:1054F80080B582B000AF7860054B1B681A46054935
:10550800786804F057F800BF0837BD4680BD00BF73
:105518003C0100202CB0000880B582B000AF786054
:10552800054B1B681A460549786804F043F800BF24
:105538000837BD4680BD00BF3C01002040B00008D0
:1055480080B400AF0A4B1B889BB201339AB2084B58
:105558001A80074B1B889BB242F21072934203D900
:10556800034B42F210721A8000BFBD4680BC7047E0
:10557800D86B002080B400AF094B1B889BB2013B5D
:105588009AB2074B1A80064B1B889BB2092B02D88C
:10559800034B0A221A8000BFBD4680BC704700BF7B
:1055A800D86B002080B582B000AF7860144B1B88A0
:1055B8009BB2144AA2FB0323DB089BB2124AA2FB4C
:1055C800031292094FF47A7101FB02F29B1A9BB203
:1055D80018460B4B1B889AB20A4BA3FB0213D90837
:1055E8000B469B000B445B00D31A9BB2024607494B
:1055F800786803F0DFFF00BF0837BD4680BD00BFF5
:10560800D86B0020CDCCCCCCD34D621000B00008B4
:1056180080B400AF0A4B9B899BB201339AB2084B06
:105628009A81074B9B899BB242F21072934203D92D
:10563800034B42F210729A8100BFBD4680BC70478E
:10564800D86B002080B400AF094B9B899BB2013B0B
:105658009AB2074B9A81064B9B899BB2092B02D8B9
:10566800034B0A229A8100BFBD4680BC704700BF29
:10567800D86B002080B582B000AF7860144B9B894E
:105688009BB2144AA2FB0323DB089BB2124AA2FB7B
:10569800031292094FF47A7101FB02F29B1A9BB232
:1056A80018460B4B9B899AB20A4BA3FB0213D908E5
:1056B8000B469B000B445B00D31A9BB2024607497A
:1056C800786803F077FF00BF0837BD4680BD00BF8C
:1056D800D86B0020CDCCCCCCD34D621000B00008E4
:1056E80080B400AF0D4BDB889BB2632B03D80B4B08
:1056F8006422DA800DE0094BDB889BB242F2AB6290
:10570800934206D8054BDB889BB264339AB2034BAD
:10571800DA8000BFBD4680BC704700BFD86B002050
:1057280080B400AF0E4BDB889BB2642B07D90C4BBF
:10573800DB889BB2643B9AB2094BDA800BE0084BDA
:10574800DB889BB20A2B06D9054BDB889BB20A3B48
:105758009AB2034BDA8000BFBD4680BC704700BFD9
:10576800D86B002080B582B000AF7860054BDB882D
:105778009BB21A460449786803F01CFF00BF08373B
:10578800BD4680BDD86B002048B0000880B582B007
:1057980000AF7860144B5B889BB2144AA2FB0323CA
:1057A800DB089BB2124AA2FB031292094FF47A71EA
:1057B80001FB02F29B1A9BB218460B4B5B889AB20C
:1057C8000A4BA3FB0213D9080B469B000B445B0052
:1057D800D31A9BB202460749786803F0EBFE00BF74
:1057E8000837BD4680BD00BFD86B0020CDCCCCCCDF
:1057F800D34D621000B0000880B500AF002001F062
:10580800CBFD00BF80BD80B500AF012001F0C4FD15
:1058180000BF80BD80B500AF104B1B78DBB2002BFA
:1058280003D00E4B00221A7016E00D4B1B78DBB22A
:10583800002B0DD10B4B1B78DBB2002B08D102F0EB
:10584800D5FF094B4FF47A621A6002F0DFF903E0E2
:1058580002F0F0FF02F0AAF980BD00BFEF110020AE
:1058680068120020691200200812002080B500AFDD
:10587800022001F091FD00BF80BD80B500AF00207F
:1058880001F08AFD00BF80BD80B500AF012001F0A6
:1058980083FD00BF80BD80B500AFFFF7BBFF00BF31
:1058A80080BD80B500AF022001F076FD00BF80BD4D
:1058B80080B500AF104B1B78DBB2002B12D1FFF77D
:1058C80035FA0E4B1B889BB21A464FF4487393FB6C
:1058D800F2F39AB20A4B1A80074B01221A70FCF7AE
:1058E80045FA07E0064B00221A80034B00221A7083
:1058F800FCF74EFA00BF80BD69120020420100206B
:105908007012002080B500AF154B1B78DBB2002B5E
:105918001BD1144B1B78DBB2082B1ED0114B1B7804
:10592800DBB2092B19D0FFF701FA0F4B1B889BB28A
:105938001A46C82393FBF2F39AB20C4B1A80084B11
:1059480001221A70FCF700FA07E0084B00221A80BF
:10595800034B00221A70FCF71BFA00BF80BD00BF82
:1059680069120020EF11002042010020701200206F
:1059780080B500AFFFF7F4F800BF80BD80B500AF79
:10598800FFF760F900BF80BD90B587B004AF002372
:105998007B600022AC49AD4801F0ECF9AB4AAC4958
:1059A800AC4801F0E7F9A94AAB49AC4801F0E2F983
:1059B800A64AAB49AB4801F0DDF9AA4AAA49AB4867
:1059C80001F0D8F9A94AAA49AA4801F0D3F9A94A85
:1059D800A949AA4801F0CEF9A24AA949A94801F063
:1059E800C9F9A04AA849A94801F0C4F99D4AA8499B
:1059F800A84801F0BFF9A84B1B685A1CA6490A60C1
:105A08005B01A64A9C18A64B1A68531CA4490B6054
:105A180013465B001344DB00A24A1344A24918460C
:105A280001F0C6FA024603230293002301930023E0
:105A380000931346854A9D49204601F022FA964B69
:105A48001B685A1C94490A605B01944A9C18944B41
:105A58001A68531C92490B6013465B001344DB0021
:105A6800904A13449249184601F0A2FA02460323C9
:105A7800029300230193082300931346734A8D4928
:105A8800204601F0FEF9844B1B685A1C82490A60C3
:105A98005B01824A9C18824B1A68531C80490B6030
:105AA80013465B001344DB007E4A134482491846C0
:105AB80001F07EFA02460323029301230193002397
:105AC80000931346614A7D49204601F0DAF9724B8A
